:100000000C9462000C948A000C948A000C948A0070
:100010000C948A000C948A000C948A000C948A0038
:100020000C948A000C948A000C948A000C948A0028
:100030000C948A000C948A000C948A000C948A0018
:100040000C9408010C948A000C94B1040C94F404F0
:100050000C948A000C948A000C948A000C948A00F8
:100060000C948A000C948A00000000070002010032
:100070000003040600000000000000000102040864
:100080001020408001020408102001020408102002
:10009000040404040404040402020202020203032E
:1000A00003030303000000002300260029000000D2
:1000B0000000250028002B0000000000240027007D
:1000C0002A00B70511241FBECFEFD8E0DEBFCDBF99
:1000D00011E0A0E0B1E0ECE1FFE002C005900D927C
:1000E000AE32B107D9F721E0AEE2B1E001C01D9216
:1000F000A93EB207E1F710E0C2E6D0E004C02197C4
:10010000FE010E947707C136D107C9F70E940A0491
:100110000C94F2050C94000040E855E260E070E0B9
:100120008FE391E00E942F0561E0809102010E941F
:10013000940260E0809100010C94940260E0809150
:1001400002010E94D00265E070E080E090E00E9431
:10015000770161E0809102010E94D0026AE070E0C4
:1001600080E090E00E94770160E0809102010E94AF
:10017000D00220E432E44FE050E061E080910001E1
:100180000E94D8016093320170933301809334014F
:100190009093350122E030E040E050E00E944D07AE
:1001A000CA01B9010E949F062DEC3CEC48EE51E4D7
:1001B0000E94F5050E946706AB01BC0140932E0129
:1001C00050932F016093300170933101DB01CA011C
:1001D0000197A109B109833F9140A105B10530F014
:1001E00064E071E08FE391E00C9458032AE030E082
:1001F0008FE391E00E94C0036BE171E08FE391E037
:100200000E94580368EE73E080E090E00C94770160
:100210001F920F920FB60F9211242F933F938F933B
:100220009F93AF93BF938091370190913801A09134
:100230003901B0913A013091360123E0230F2D3777
:1002400020F40196A11DB11D05C026E8230F0296DA
:10025000A11DB11D20933601809337019093380181
:10026000A0933901B0933A0180913B0190913C01F8
:10027000A0913D01B0913E010196A11DB11D809359
:100280003B0190933C01A0933D01B0933E01BF918F
:10029000AF919F918F913F912F910F900FBE0F9033
:1002A0001F9018953FB7F89480913B0190913C01C5
:1002B000A0913D01B0913E0126B5A89B05C02F3FFE
:1002C00019F00196A11DB11D3FBFBA2FA92F982F7C
:1002D0008827820F911DA11DB11DBC01CD0142E0F7
:1002E000660F771F881F991F4A95D1F70895CF92FF
:1002F000DF92EF92FF92CF93DF936B017C010E941C
:100300005201EB01C114D104E104F10479F00E941F
:1003100052016C1B7D0B683E7340A0F381E0C81A4C
:10032000D108E108F108C851DC4FECCFDF91CF9143
:10033000FF90EF90DF90CF900895789484B582601D
:1003400084BD84B5816084BD85B5826085BD85B579
:10035000816085BDEEE6F0E0808181608083E1E828
:10036000F0E0108280818260808380818160808360
:10037000E0E8F0E0808181608083E1EBF0E0808163
:1003800084608083E0EBF0E0808181608083EAE735
:10039000F0E08081846080838081826080838081BE
:1003A000816080838081806880831092C10008957D
:1003B0008F929F92AF92BF92CF92DF92EF92FF9275
:1003C0000F931F93CF93DF9390E0FC01E458FF4F0E
:1003D000A491FC01E057FF4F8491662311F0BA2FDE
:1003E00001C0B0E089019A013F7090E0880F991F29
:1003F0008C559F4F480159014FEF841A940AA40A63
:10040000B40AC12CD12C7601FC01C591D49168812C
:100410006A236B131AC05FEFC51AD50AE50AF50AFD
:10042000C814D904EA04FB0479F745C04601570112
:100430006FEF861A960AA60AB60AC016D106E20619
:10044000F30609F438C075016401FC01C591D4912B
:1004500068816A236B13EACFB901A8014C195D09C1
:100460006E097F096A017B0120E030E0A901FC01EF
:10047000C591D49168816A236B130AC02C153D0580
:100480004E055F05C1F02F5F3F4F4F4F5F4FEFCFDE
:10049000A5E1B0E00E946C07DC01CB014096A11DF4
:1004A000B11DBC01CD0124E09695879577956795A0
:1004B0002A95D1F703C060E070E0CB01DF91CF91C6
:1004C0001F910F91FF90EF90DF90CF90BF90AF9072
:1004D0009F908F900895833081F028F4813099F0B7
:1004E0008230A1F008958630A9F08730B9F08430C9
:1004F000D1F4809180008F7D03C0809180008F7740
:1005000080938000089584B58F7702C084B58F7D75
:1005100084BD08958091B0008F7703C08091B000B2
:100520008F7D8093B0000895CF93DF9390E0FC011E
:10053000E458FF4F2491FC01E057FF4F849188233A
:1005400061F190E0880F991FFC01E854FF4FC591BD
:10055000D491FC01E255FF4FA591B491611109C0FE
:100560009FB7F8948881209582238883EC912E236D
:100570000BC0623061F49FB7F8943881822F809568
:1005800083238883EC912E2B2C939FBF06C08FB7BB
:10059000F894E8812E2B28838FBFDF91CF910895A7
:1005A0001F93CF93DF93282F30E0F901E859FF4FD5
:1005B0008491F901E458FF4FD491F901E057FF4FBE
:1005C000C491CC23C9F0162F81110E946B02EC2F2D
:1005D000F0E0EE0FFF1FE255FF4FA591B4918FB7EA
:1005E000F894111105C09C91ED2FE095E92302C00C
:1005F000EC91ED2BEC938FBFDF91CF911F9108957C
:10060000CF92DF92EF92FF920F931F93CF93DF93DE
:100610006C01EB017B01E40EF51E00E010E0CE154D
:10062000DF0561F06991D601ED91FC910190F081B7
:10063000E02DC6010995080F191FF1CFC801DF9100
:10064000CF911F910F91FF90EF90DF90CF90089581
:100650006115710579F0FB0101900020E9F73197F0
:10066000AF01461B570BDC01ED91FC910280F38139
:10067000E02D099480E090E00895DC01ED91FC917B
:100680000190F081E02D09940F931F93CF93DF9396
:10069000EC016DE00E943D038C016AE0CE010E94F6
:1006A0003D03800F911FDF91CF911F910F9108950E
:1006B0000F931F93CF93DF93EC010E9428038C01CB
:1006C000CE010E944403800F911FDF91CF911F91B3
:1006D0000F9108958F929F92AF92BF92CF92DF9227
:1006E000EF92FF920F931F93CF93DF93CDB7DEB7B7
:1006F000A1970FB6F894DEBF0FBECDBF6C01142FCB
:10070000E52FCB01022F19A2223008F40AE07E0166
:1007100021E2E20EF11C802E912CA12CB12C612F34
:100720007E2FA50194010E942B07029F101911240E
:1007300081E0E81AF1081A3014F4105D01C0195C68
:10074000F7011083122FE32FCA01232B242B252B13
:1007500031F7B701C6010E942803A1960FB6F8949D
:10076000DEBF0FBECDBFDF91CF911F910F91FF90E4
:10077000EF90DF90CF90BF90AF909F908F900895B3
:10078000CF92DF92EF92FF920F931F93CF93DF935D
:10079000EC016A017B012115310579F4E881F981C9
:1007A0000190F081E02D642FDF91CF911F910F9187
:1007B000FF90EF90DF90CF9009942A303105E9F453
:1007C00077FF1AC06DE20E943D038C014427552734
:1007D000BA014C195D096E097F092AE0CE010E9419
:1007E0006A03800F911FDF91CF911F910F91FF90AE
:1007F000EF90DF90CF9008952AE0B701A601CE01D7
:10080000DF91CF911F910F91FF90EF90DF90CF90EC
:100810000C946A030E949D010E948C00CBEED4E0F0
:100820000E949E002097E1F30E94EB04F9CFFC01A7
:1008300024853585F901E05CFF4F808191813296F6
:1008400020813181821B930B8F7399270895DC01DE
:100850001C96ED91FC911D97DF01A05CBF4F2D917F
:100860003C91119712968D919C91119728173907F9
:1008700039F08D919C91E80FF91F808190E00895E7
:100880008FEF9FEF0895FC01A485B585FD01E05C25
:10089000FF4F20813181329680819181281739075D
:1008A00079F080819181A80FB91F8C9120813181CD
:1008B0002F5F3F4F2F7333273183208390E00895BC
:1008C0008FEF9FEF0895FC0181A1882329F0A4896F
:1008D000B5898C9186FFFBCF11A208950F931F93CA
:1008E000CF93DF93FC01A685B7858D01005C1F4F78
:1008F000E8018881998101968F739927AD014E5B3C
:100900005F4FEA012881398182179307D1F3E8010B
:1009100028813981A20FB31F6C93A685B785A05C8F
:10092000BF4F11969C938E93A689B7892C9181E035
:1009300090E0078C02C0880F991F0A94E2F7822B7F
:100940008C9381E081A30488F589E02D8081806407
:10095000808381E090E0DF91CF911F910F91089506
:1009600008951F920F920FB60F9211242F934F9359
:100970005F938F939F93EF93FF938091C00082FDCD
:100980001CC02091C6008091E5019091E60101967E
:100990008F7399274091E7015091E80184179507DB
:1009A00071F0E091E501F091E601EB55FE4F2083F7
:1009B0009093E6018093E50102C08091C600FF910B
:1009C000EF919F918F915F914F912F910F900FBE5B
:1009D0000F901F9018958FE391E00E941704892BC8
:1009E00011F00C94B00408951F920F920FB60F925D
:1009F00011242F933F938F939F93EF93FF93209115
:100A0000A1013091A2018091A3019091A401281726
:100A1000390731F48091C1008F7D8093C10014C0EB
:100A2000E091A301F091A401EF59FE4F2081809144
:100A3000A3019091A40101968F7399279093A4012B
:100A40008093A3012093C600FF91EF919F918F9116
:100A50003F912F910F900FBE0F901F901895CF923E
:100A6000DF92EF92FF920F931F93CF93DF93EC01EE
:100A70006A017B014115514E6105710509F1EC894F
:100A8000FD8981E090E008A002C0880F991F0A94B8
:100A9000E2F7808360E079E08DE390E0A7019601C2
:100AA0000E942B0789019A0101501109210931097E
:100AB0003695279517950795980101151041A8F0CF
:100AC000EC89FD89108260E874E88EE190E0A7016E
:100AD00096010E942B07DA01C9010197A109B1090A
:100AE000B695A795979587959C01E889F9893083F4
:100AF000EA89FB89208319A2EE89FF89408181E080
:100B000090E09C010C8C02C0220F331F0A94E2F784
:100B1000242B2083EE89FF8940819C010D8C02C02B
:100B2000220F331F0A94E2F7242B2083EE89FF89DA
:100B300040819C010E8C02C0220F331F0A94E2F701
:100B4000242B2083EE89FF8920810F8C02C0880F1F
:100B5000991F0A94E2F7809582238083DF91CF91D9
:100B60001F910F91FF90EF90DF90CF900895EFE3EA
:100B7000F1E01382128288EE93E0A0E0B0E084837B
:100B80009583A683B78382E291E09183808385EA8F
:100B900091E09587848781E691E09787868785EC49
:100BA00090E0918B808B84EC90E0938B828B80EC37
:100BB00090E0958B848B81EC90E0978B868B82EC18
:100BC00090E0918F808F86EC90E0938F828F84E00D
:100BD000848F83E0858F87E0868F85E0878F81E033
:100BE00080A30895F8940C948C070E9409060C9435
:100BF000F1060E94EA0658F00E94E30640F029F44C
:100C00005F3F29F00C94DA0651110C9425070C94DF
:100C1000E0060E94020768F39923B1F3552391F38C
:100C2000951B550BBB27AA2762177307840738F05B
:100C30009F5F5F4F220F331F441FAA1FA9F335D0B8
:100C40000E2E3AF0E0E832D091505040E695001C6C
:100C5000CAF72BD0FE2F29D0660F771F881FBB1F26
:100C6000261737074807AB07B0E809F0BB0B802D04
:100C7000BF01FF2793585F4F3AF09E3F510578F030
:100C80000C94DA060C9425075F3FE4F3983ED4F306
:100C9000869577956795B795F7959F5FC9F7880F04
:100CA000911D9695879597F90895E1E0660F771F56
:100CB000881FBB1F621773078407BA0720F0621BE7
:100CC000730B840BBA0BEE1F88F7E09508950E9412
:100CD0006E066894B1110C94250708950E940A07C6
:100CE00088F09F5798F0B92F9927B751B0F0E1F0ED
:100CF000660F771F881F991F1AF0BA95C9F714C09D
:100D0000B13091F00E942407B1E008950C942407BB
:100D1000672F782F8827B85F39F0B93FCCF38695D5
:100D200077956795B395D9F73EF490958095709532
:100D300061957F4F8F4F9F4F0895E89409C097FBAF
:100D40003EF490958095709561957F4F8F4F9F4FA2
:100D50009923A9F0F92F96E9BB279395F6958795E6
:100D600077956795B795F111F8CFFAF4BB0F11F4A9
:100D700060FF1BC06F5F7F4F8F4F9F4F16C0882350
:100D800011F096E911C0772321F09EE8872F762F86
:100D900005C0662371F096E8862F70E060E02AF0C7
:100DA0009A95660F771F881FDAF7880F96958795B3
:100DB00097F9089597F99F6780E870E060E00895DB
:100DC0009FEF80EC089500240A9416161706180663
:100DD0000906089500240A9412161306140605063F
:100DE0000895092E0394000C11F4882352F0BB0FD0
:100DF00040F4BF2B11F460FF04C06F5F7F4F8F4F33
:100E00009F4F089557FD9058440F551F59F05F3F6D
:100E100071F04795880F97FB991F61F09F3F79F01C
:100E200087950895121613061406551FF2CF46959E
:100E3000F1DF08C0161617061806991FF1CF869520
:100E40007105610508940895E894BB276627772704
:100E5000CB0197F90895A1E21A2EAA1BBB1BFD0135
:100E60000DC0AA1FBB1FEE1FFF1FA217B307E40789
:100E7000F50720F0A21BB30BE40BF50B661F771FE1
:100E8000881F991F1A9469F76095709580959095C1
:100E90009B01AC01BD01CF010895052E97FB1EF407
:100EA00000940E94640757FD07D00E942B0707FC9F
:100EB00003D04EF40C9464075095409530952195DD
:100EC0003F4F4F4F5F4F0895909580957095619576
:100ED0007F4F8F4F9F4F08950E947D07A59F900DD4
:100EE000B49F900DA49F800D911D11240895EE0FC5
:100EF000FF1F0590F491E02D0994A29FB001B39FCC
:100F0000C001A39F700D811D1124911DB29F700D12
:0C0F1000811D1124911D0895F894FFCF5D
:100F1C0003000200696E6163637572617465206D14
:100F2C006561737572656D656E7400636D000000AC
:0E0F3C0000006E04000317044304270463043E
:00000001FF
